:020000020000FC
:100000000FEF4FE356E06BE57FE486E6ADE6BDE734
:10001000C7E0DFE7EFE60AB94BB90E9487000E940C
:10002000870000000E9487000E94870000005BB9E3
:100030000E9487000E94870000000E9487000E94A3
:10004000870000006BB90E9487000E9487000000B3
:100050000E9487000E94870000007BB90E948700F1
:100060000E94870000000E9487000E948700000015
:100070008BB90E9487000E94870000000E948700C1
:100080000E94870000009BB90E9487000E948700A1
:1000900000000E9487000E9487000000ABB90E9408
:1000A00087000E94870000000E9487000E9487004E
:1000B0000000BBB90E9487000E94870000000E94D8
:1000C00087000E9487000000CBB90E9487000E9431
:1000D000870000000E9487000E9487000000DBB9B3
:1000E0000E9487000E94870000000E9487000E94F3
:1000F00087000000EBB90E9487000E948700000083
:100100000E9487000E94870000000C9495002FEF4A
:100110003FEF1BE41A95F1F7000000003A95C9F78C
:10012000000000002A95A1F70895EBB90E9487000E
:100130000E94870000000E9487000E948700000044
:10014000DBB90E9487000E94870000000E948700A0
:100150000E9487000000CBB90E9487000E948700A0
:1001600000000E9487000E94870000000E94870014
:100170000E9487000000BBB90E9487000E94870090
:100180000000ABB90E9487000E94870000000E9417
:1001900087000E94870000009BB90E9487000E9490
:1001A000870000000E9487000E94870000008BB932
:1001B0000E9487000E94870000007BB90E94870090
:1001C0000E94870000000E9487000E9487000000B4
:1001D0006BB90E9487000E94870000000E94870080
:1001E0000E94870000005BB90E9487000E94870080
:1001F00000000E9487000E94870000004BB90E9407
:1002000087000E94870000000E9487000E948700EC
:0602100000000C940C003C
:00000001FF
